{
    "contractName": "RaffluxMain",
    "abi": [
        {
            "inputs": [],
            "stateMutability": "payable",
            "type": "constructor"
        },
        {
            "inputs": [
                {
                    "internalType": "bytes32",
                    "name": "data",
                    "type": "bytes32"
                }
            ],
            "name": "noTime",
            "type": "error"
        },
        {
            "inputs": [],
            "name": "reverted",
            "type": "error"
        },
        {
            "inputs": [
                {
                    "internalType": "string",
                    "name": "data",
                    "type": "string"
                }
            ],
            "name": "transactReverted",
            "type": "error"
        },
        {
            "anonymous": false,
            "inputs": [
                {
                    "indexed": false,
                    "internalType": "uint256",
                    "name": "_proposalId",
                    "type": "uint256"
                },
                {
                    "indexed": false,
                    "internalType": "uint256",
                    "name": "_amount",
                    "type": "uint256"
                },
                {
                    "indexed": true,
                    "internalType": "address",
                    "name": "buyer",
                    "type": "address"
                }
            ],
            "name": "Log_BuyTicket",
            "type": "event"
        },
        {
            "anonymous": false,
            "inputs": [
                {
                    "indexed": false,
                    "internalType": "uint256",
                    "name": "_proposalId",
                    "type": "uint256"
                },
                {
                    "indexed": false,
                    "internalType": "bool",
                    "name": "_status",
                    "type": "bool"
                }
            ],
            "name": "Log_ChangeProposalStatus",
            "type": "event"
        },
        {
            "anonymous": false,
            "inputs": [
                {
                    "indexed": false,
                    "internalType": "uint256",
                    "name": "_proposalId",
                    "type": "uint256"
                },
                {
                    "indexed": true,
                    "internalType": "address",
                    "name": "_receiver",
                    "type": "address"
                },
                {
                    "indexed": true,
                    "internalType": "address",
                    "name": "_sender",
                    "type": "address"
                }
            ],
            "name": "Log_DelegateTicket",
            "type": "event"
        },
        {
            "anonymous": false,
            "inputs": [
                {
                    "indexed": false,
                    "internalType": "uint256",
                    "name": "_proposalId",
                    "type": "uint256"
                },
                {
                    "indexed": true,
                    "internalType": "address",
                    "name": "_winner",
                    "type": "address"
                }
            ],
            "name": "Log_ExecuteProposal",
            "type": "event"
        },
        {
            "anonymous": false,
            "inputs": [
                {
                    "indexed": false,
                    "internalType": "string",
                    "name": "_description",
                    "type": "string"
                },
                {
                    "indexed": true,
                    "internalType": "address",
                    "name": "_owner",
                    "type": "address"
                },
                {
                    "indexed": false,
                    "internalType": "uint256",
                    "name": "_startTime",
                    "type": "uint256"
                },
                {
                    "indexed": false,
                    "internalType": "uint256",
                    "name": "_endTime",
                    "type": "uint256"
                },
                {
                    "indexed": false,
                    "internalType": "uint256",
                    "name": "_maxTicket",
                    "type": "uint256"
                },
                {
                    "indexed": false,
                    "internalType": "uint256",
                    "name": "_ticketPerUser",
                    "type": "uint256"
                },
                {
                    "indexed": true,
                    "internalType": "address",
                    "name": "_prize",
                    "type": "address"
                },
                {
                    "indexed": false,
                    "internalType": "uint256",
                    "name": "_tokenId",
                    "type": "uint256"
                },
                {
                    "indexed": false,
                    "internalType": "uint256",
                    "name": "_price",
                    "type": "uint256"
                }
            ],
            "name": "Log_ProposeRaffle",
            "type": "event"
        },
        {
            "anonymous": false,
            "inputs": [
                {
                    "indexed": false,
                    "internalType": "uint256",
                    "name": "_proposalId",
                    "type": "uint256"
                },
                {
                    "indexed": false,
                    "internalType": "address",
                    "name": "_receiver",
                    "type": "address"
                },
                {
                    "indexed": false,
                    "internalType": "uint256",
                    "name": "_amount",
                    "type": "uint256"
                }
            ],
            "name": "Log_RefundTicket",
            "type": "event"
        },
        {
            "anonymous": false,
            "inputs": [
                {
                    "indexed": true,
                    "internalType": "address",
                    "name": "previousOwner",
                    "type": "address"
                },
                {
                    "indexed": true,
                    "internalType": "address",
                    "name": "newOwner",
                    "type": "address"
                }
            ],
            "name": "OwnershipTransferred",
            "type": "event"
        },
        {
            "anonymous": false,
            "inputs": [
                {
                    "indexed": true,
                    "internalType": "address",
                    "name": "_user",
                    "type": "address"
                },
                {
                    "indexed": false,
                    "internalType": "uint256",
                    "name": "_points",
                    "type": "uint256"
                }
            ],
            "name": "addPoint",
            "type": "event"
        },
        {
            "anonymous": false,
            "inputs": [
                {
                    "indexed": true,
                    "internalType": "address",
                    "name": "_user",
                    "type": "address"
                },
                {
                    "indexed": false,
                    "internalType": "uint256",
                    "name": "_points",
                    "type": "uint256"
                }
            ],
            "name": "removePoint",
            "type": "event"
        },
        {
            "inputs": [],
            "name": "IID_IERC1155",
            "outputs": [
                {
                    "internalType": "bytes4",
                    "name": "",
                    "type": "bytes4"
                }
            ],
            "stateMutability": "view",
            "type": "function"
        },
        {
            "inputs": [],
            "name": "IID_IERC165",
            "outputs": [
                {
                    "internalType": "bytes4",
                    "name": "",
                    "type": "bytes4"
                }
            ],
            "stateMutability": "view",
            "type": "function"
        },
        {
            "inputs": [],
            "name": "IID_IERC721",
            "outputs": [
                {
                    "internalType": "bytes4",
                    "name": "",
                    "type": "bytes4"
                }
            ],
            "stateMutability": "view",
            "type": "function"
        },
        {
            "inputs": [],
            "name": "IID_ITEST",
            "outputs": [
                {
                    "internalType": "bytes4",
                    "name": "",
                    "type": "bytes4"
                }
            ],
            "stateMutability": "view",
            "type": "function"
        },
        {
            "inputs": [
                {
                    "internalType": "uint256",
                    "name": "_proposalId",
                    "type": "uint256"
                }
            ],
            "name": "buyTicket",
            "outputs": [],
            "stateMutability": "payable",
            "type": "function"
        },
        {
            "inputs": [],
            "name": "caller",
            "outputs": [
                {
                    "internalType": "address",
                    "name": "",
                    "type": "address"
                }
            ],
            "stateMutability": "view",
            "type": "function"
        },
        {
            "inputs": [
                {
                    "internalType": "uint256",
                    "name": "_raffleId",
                    "type": "uint256"
                }
            ],
            "name": "canVote",
            "outputs": [],
            "stateMutability": "nonpayable",
            "type": "function"
        },
        {
            "inputs": [
                {
                    "internalType": "uint256",
                    "name": "_proposalId",
                    "type": "uint256"
                }
            ],
            "name": "changeProposalStatus",
            "outputs": [],
            "stateMutability": "nonpayable",
            "type": "function"
        },
        {
            "inputs": [],
            "name": "currentValidators",
            "outputs": [
                {
                    "internalType": "uint256",
                    "name": "",
                    "type": "uint256"
                }
            ],
            "stateMutability": "view",
            "type": "function"
        },
        {
            "inputs": [
                {
                    "internalType": "uint256",
                    "name": "_proposalId",
                    "type": "uint256"
                },
                {
                    "internalType": "address",
                    "name": "_receiver",
                    "type": "address"
                }
            ],
            "name": "delegateTicket",
            "outputs": [],
            "stateMutability": "nonpayable",
            "type": "function"
        },
        {
            "inputs": [
                {
                    "internalType": "address",
                    "name": "_tokenAddress",
                    "type": "address"
                },
                {
                    "internalType": "uint256",
                    "name": "_tokenId",
                    "type": "uint256"
                },
                {
                    "internalType": "uint256",
                    "name": "_proposalId",
                    "type": "uint256"
                }
            ],
            "name": "depositNft",
            "outputs": [],
            "stateMutability": "nonpayable",
            "type": "function"
        },
        {
            "inputs": [
                {
                    "internalType": "uint256",
                    "name": "_proposalId",
                    "type": "uint256"
                }
            ],
            "name": "executeProposal",
            "outputs": [],
            "stateMutability": "nonpayable",
            "type": "function"
        },
        {
            "inputs": [],
            "name": "getRandomness",
            "outputs": [],
            "stateMutability": "nonpayable",
            "type": "function"
        },
        {
            "inputs": [
                {
                    "internalType": "uint256",
                    "name": "",
                    "type": "uint256"
                },
                {
                    "internalType": "address",
                    "name": "",
                    "type": "address"
                }
            ],
            "name": "hasTicket",
            "outputs": [
                {
                    "internalType": "bool",
                    "name": "",
                    "type": "bool"
                }
            ],
            "stateMutability": "view",
            "type": "function"
        },
        {
            "inputs": [
                {
                    "internalType": "address",
                    "name": "nftAddress",
                    "type": "address"
                }
            ],
            "name": "isERC1155",
            "outputs": [
                {
                    "internalType": "bool",
                    "name": "",
                    "type": "bool"
                }
            ],
            "stateMutability": "view",
            "type": "function"
        },
        {
            "inputs": [
                {
                    "internalType": "address",
                    "name": "nftAddress",
                    "type": "address"
                }
            ],
            "name": "isERC721",
            "outputs": [
                {
                    "internalType": "bool",
                    "name": "",
                    "type": "bool"
                }
            ],
            "stateMutability": "view",
            "type": "function"
        },
        {
            "inputs": [
                {
                    "internalType": "address",
                    "name": "",
                    "type": "address"
                },
                {
                    "internalType": "address",
                    "name": "",
                    "type": "address"
                },
                {
                    "internalType": "uint256[]",
                    "name": "",
                    "type": "uint256[]"
                },
                {
                    "internalType": "uint256[]",
                    "name": "",
                    "type": "uint256[]"
                },
                {
                    "internalType": "bytes",
                    "name": "",
                    "type": "bytes"
                }
            ],
            "name": "onERC1155BatchReceived",
            "outputs": [
                {
                    "internalType": "bytes4",
                    "name": "",
                    "type": "bytes4"
                }
            ],
            "stateMutability": "nonpayable",
            "type": "function"
        },
        {
            "inputs": [
                {
                    "internalType": "address",
                    "name": "",
                    "type": "address"
                },
                {
                    "internalType": "address",
                    "name": "",
                    "type": "address"
                },
                {
                    "internalType": "uint256",
                    "name": "",
                    "type": "uint256"
                },
                {
                    "internalType": "uint256",
                    "name": "",
                    "type": "uint256"
                },
                {
                    "internalType": "bytes",
                    "name": "",
                    "type": "bytes"
                }
            ],
            "name": "onERC1155Received",
            "outputs": [
                {
                    "internalType": "bytes4",
                    "name": "",
                    "type": "bytes4"
                }
            ],
            "stateMutability": "nonpayable",
            "type": "function"
        },
        {
            "inputs": [
                {
                    "internalType": "address",
                    "name": "",
                    "type": "address"
                },
                {
                    "internalType": "address",
                    "name": "",
                    "type": "address"
                },
                {
                    "internalType": "uint256",
                    "name": "",
                    "type": "uint256"
                },
                {
                    "internalType": "bytes",
                    "name": "",
                    "type": "bytes"
                }
            ],
            "name": "onERC721Received",
            "outputs": [
                {
                    "internalType": "bytes4",
                    "name": "",
                    "type": "bytes4"
                }
            ],
            "stateMutability": "nonpayable",
            "type": "function"
        },
        {
            "inputs": [],
            "name": "owner",
            "outputs": [
                {
                    "internalType": "address",
                    "name": "",
                    "type": "address"
                }
            ],
            "stateMutability": "view",
            "type": "function"
        },
        {
            "inputs": [
                {
                    "internalType": "string",
                    "name": "_description",
                    "type": "string"
                },
                {
                    "internalType": "address",
                    "name": "_owner",
                    "type": "address"
                },
                {
                    "internalType": "uint256",
                    "name": "_startTime",
                    "type": "uint256"
                },
                {
                    "internalType": "uint256",
                    "name": "_endTime",
                    "type": "uint256"
                },
                {
                    "internalType": "uint256",
                    "name": "_maxTicket",
                    "type": "uint256"
                },
                {
                    "internalType": "uint256",
                    "name": "_ticketPerUser",
                    "type": "uint256"
                },
                {
                    "internalType": "address",
                    "name": "_prize",
                    "type": "address"
                },
                {
                    "internalType": "uint256",
                    "name": "_tokenId",
                    "type": "uint256"
                },
                {
                    "internalType": "uint256",
                    "name": "_price",
                    "type": "uint256"
                }
            ],
            "name": "proposeRaffle",
            "outputs": [],
            "stateMutability": "nonpayable",
            "type": "function"
        },
        {
            "inputs": [
                {
                    "internalType": "uint256",
                    "name": "",
                    "type": "uint256"
                }
            ],
            "name": "raffles",
            "outputs": [
                {
                    "internalType": "address",
                    "name": "owner",
                    "type": "address"
                },
                {
                    "internalType": "string",
                    "name": "description",
                    "type": "string"
                },
                {
                    "internalType": "uint256",
                    "name": "index",
                    "type": "uint256"
                },
                {
                    "internalType": "uint256",
                    "name": "price",
                    "type": "uint256"
                },
                {
                    "internalType": "address",
                    "name": "prize",
                    "type": "address"
                },
                {
                    "internalType": "uint256",
                    "name": "maxTicket",
                    "type": "uint256"
                },
                {
                    "internalType": "uint256",
                    "name": "proposedAt",
                    "type": "uint256"
                },
                {
                    "internalType": "uint256",
                    "name": "endTime",
                    "type": "uint256"
                },
                {
                    "internalType": "uint256",
                    "name": "ticketPerUser",
                    "type": "uint256"
                },
                {
                    "internalType": "uint256",
                    "name": "tokenId",
                    "type": "uint256"
                },
                {
                    "internalType": "bool",
                    "name": "stop",
                    "type": "bool"
                },
                {
                    "internalType": "address",
                    "name": "winner",
                    "type": "address"
                }
            ],
            "stateMutability": "view",
            "type": "function"
        },
        {
            "inputs": [
                {
                    "internalType": "uint256",
                    "name": "_proposalId",
                    "type": "uint256"
                }
            ],
            "name": "refundTicket",
            "outputs": [],
            "stateMutability": "nonpayable",
            "type": "function"
        },
        {
            "inputs": [],
            "name": "renounceOwnership",
            "outputs": [],
            "stateMutability": "nonpayable",
            "type": "function"
        },
        {
            "inputs": [
                {
                    "internalType": "bytes4",
                    "name": "interfaceId",
                    "type": "bytes4"
                }
            ],
            "name": "supportsInterface",
            "outputs": [
                {
                    "internalType": "bool",
                    "name": "",
                    "type": "bool"
                }
            ],
            "stateMutability": "view",
            "type": "function"
        },
        {
            "inputs": [
                {
                    "internalType": "uint256",
                    "name": "_proposalId",
                    "type": "uint256"
                }
            ],
            "name": "timeLeft",
            "outputs": [
                {
                    "internalType": "uint256",
                    "name": "",
                    "type": "uint256"
                }
            ],
            "stateMutability": "view",
            "type": "function"
        },
        {
            "inputs": [
                {
                    "internalType": "uint256",
                    "name": "",
                    "type": "uint256"
                }
            ],
            "name": "timeLefts",
            "outputs": [
                {
                    "internalType": "uint256",
                    "name": "",
                    "type": "uint256"
                }
            ],
            "stateMutability": "view",
            "type": "function"
        },
        {
            "inputs": [
                {
                    "internalType": "uint256",
                    "name": "",
                    "type": "uint256"
                }
            ],
            "name": "totalAmount",
            "outputs": [
                {
                    "internalType": "uint256",
                    "name": "",
                    "type": "uint256"
                }
            ],
            "stateMutability": "view",
            "type": "function"
        },
        {
            "inputs": [
                {
                    "internalType": "address",
                    "name": "",
                    "type": "address"
                }
            ],
            "name": "totalTicket",
            "outputs": [
                {
                    "internalType": "uint256",
                    "name": "",
                    "type": "uint256"
                }
            ],
            "stateMutability": "view",
            "type": "function"
        },
        {
            "inputs": [
                {
                    "internalType": "address",
                    "name": "newOwner",
                    "type": "address"
                }
            ],
            "name": "transferOwnership",
            "outputs": [],
            "stateMutability": "nonpayable",
            "type": "function"
        },
        {
            "inputs": [],
            "name": "type1155",
            "outputs": [
                {
                    "internalType": "bytes32",
                    "name": "",
                    "type": "bytes32"
                }
            ],
            "stateMutability": "view",
            "type": "function"
        },
        {
            "inputs": [],
            "name": "type721",
            "outputs": [
                {
                    "internalType": "bytes32",
                    "name": "",
                    "type": "bytes32"
                }
            ],
            "stateMutability": "view",
            "type": "function"
        },
        {
            "inputs": [
                {
                    "internalType": "address",
                    "name": "_user",
                    "type": "address"
                },
                {
                    "internalType": "uint256",
                    "name": "_points",
                    "type": "uint256"
                },
                {
                    "internalType": "uint256",
                    "name": "_proposalId",
                    "type": "uint256"
                },
                {
                    "internalType": "bool",
                    "name": "_bool",
                    "type": "bool"
                }
            ],
            "name": "updatePoints",
            "outputs": [],
            "stateMutability": "nonpayable",
            "type": "function"
        },
        {
            "inputs": [
                {
                    "internalType": "address",
                    "name": "_user",
                    "type": "address"
                },
                {
                    "internalType": "uint256",
                    "name": "_proposalId",
                    "type": "uint256"
                }
            ],
            "name": "viewPoints",
            "outputs": [
                {
                    "internalType": "uint256",
                    "name": "",
                    "type": "uint256"
                }
            ],
            "stateMutability": "view",
            "type": "function"
        },
        {
            "inputs": [
                {
                    "internalType": "address",
                    "name": "_tokenAddress",
                    "type": "address"
                },
                {
                    "internalType": "uint256",
                    "name": "_tokenId",
                    "type": "uint256"
                }
            ],
            "name": "withdrawNft",
            "outputs": [],
            "stateMutability": "nonpayable",
            "type": "function"
        }
    ],
    "bytecode": "60806040526000600555620000143362000066565b6040516200002290620000b6565b604051809103906000f0801580156200003f573d6000803e3d6000fd5b50600480546001600160a01b0319166001600160a01b0392909216919091179055620000c4565b600080546001600160a01b038381166001600160a01b0319831681178455604051919092169283917f8be0079c531659141344cd1fd0a4f28419497f9722a3daafe3b4186f6b6457e09190a35050565b610d3f806200267a83390190565b6125a680620000d46000396000f3fe6080604052600436106102045760003560e01c806376b5731611610118578063b219b6c6116100a0578063e0966dad1161006f578063e0966dad146106a8578063e09a3cb4146106c3578063f23a6e61146106e3578063f2fde38b14610710578063fc9c8d391461073057600080fd5b8063b219b6c61461060c578063bc197c8114610639578063d8fc651914610668578063daa09e541461068857600080fd5b80639b8cfe52116100e75780639b8cfe5214610594578063a08292c2146105af578063a2cde609146105cf578063a4027838146105e5578063aaae7b861461060057600080fd5b806376b57316146104e0578063789bc2e6146105005780638ae5d314146105425780638da5cb5b1461056257600080fd5b806347cb7a681161019b5780635ec23ac91161016a5780635ec23ac91461043757806367dd74ca146104645780636af58baf14610477578063715018a6146104ab57806375774100146104c057600080fd5b806347cb7a68146103895780634843d2b1146103a95780634952e10b146103e45780635d4bc0ce146103ff57600080fd5b8063282e460a116101d7578063282e460a146102da57806329d41695146102fa5780632b483e061461031a5780633ad424171461035c57600080fd5b806301ffc9a7146102095780630d61b5191461023e578063150b7a021461026057806325746251146102a4575b600080fd5b34801561021557600080fd5b50610229610224366004611d60565b610750565b60405190151581526020015b60405180910390f35b34801561024a57600080fd5b5061025e610259366004611d8a565b610787565b005b34801561026c57600080fd5b5061028b61027b366004611e46565b630a85bd0160e11b949350505050565b6040516001600160e01b03199091168152602001610235565b3480156102b057600080fd5b5061025e6102bf366004611d8a565b6000908152600960205260409020805460ff19166001179055565b3480156102e657600080fd5b506102296102f5366004611ec2565b610ab6565b34801561030657600080fd5b5061025e610315366004611edd565b610ad2565b34801561032657600080fd5b5061034e7f73ad2146b3d3a286642c794379d750360a2d53a3459a11b3e5d6cc900f55f44a81565b604051908152602001610235565b34801561036857600080fd5b5061034e610377366004611d8a565b600b6020526000908152604090205481565b34801561039557600080fd5b5061034e6103a4366004611d8a565b610d0c565b3480156103b557600080fd5b506102296103c4366004611f8a565b600a60209081526000928352604080842090915290825290205460ff1681565b3480156103f057600080fd5b5061028b6379476c2f60e11b81565b34801561040b57600080fd5b5061041f61041a366004611d8a565b610d7e565b6040516102359c9b9a99989796959493929190611ffc565b34801561044357600080fd5b5061034e610452366004611ec2565b600e6020526000908152604090205481565b61025e610472366004611d8a565b610e8f565b34801561048357600080fd5b5061034e7f973bb64086f173ec8099b7ed3d43da984f4a332e4417a08bc6a286e6402b058681565b3480156104b757600080fd5b5061025e611235565b3480156104cc57600080fd5b5061025e6104db366004611d8a565b611249565b3480156104ec57600080fd5b5061025e6104fb366004611d8a565b6114a9565b34801561050c57600080fd5b5061034e61051b366004612075565b60009081526002602090815260408083206001600160a01b03949094168352929052205490565b34801561054e57600080fd5b5061025e61055d36600461209f565b6115de565b34801561056e57600080fd5b506000546001600160a01b03165b6040516001600160a01b039091168152602001610235565b3480156105a057600080fd5b5061028b636cdb3d1360e11b81565b3480156105bb57600080fd5b5061025e6105ca366004611f8a565b611729565b3480156105db57600080fd5b5061034e60075481565b3480156105f157600080fd5b5061028b6301ffc9a760e01b81565b34801561025e57600080fd5b34801561061857600080fd5b5061034e610627366004611d8a565b60086020526000908152604090205481565b34801561064557600080fd5b5061028b61065436600461217a565b63bc197c8160e01b98975050505050505050565b34801561067457600080fd5b5061025e610683366004612075565b611991565b34801561069457600080fd5b506102296106a3366004611ec2565b611a5c565b3480156106b457600080fd5b5061028b6380ac58cd60e01b81565b3480156106cf57600080fd5b5061025e6106de366004612235565b611a78565b3480156106ef57600080fd5b5061028b6106fe366004612268565b63f23a6e6160e01b9695505050505050565b34801561071c57600080fd5b5061025e61072b366004611ec2565b611b46565b34801561073c57600080fd5b5060015461057c906001600160a01b031681565b60006001600160e01b031982166379476c2f60e11b148061078157506001600160e01b031982166301ffc9a760e01b145b92915050565b60008181526011602052604081205460ff16151590036107ba57604051635e057c1560e11b815260040160405180910390fd5b600681815481106107cd576107cd6122e0565b60009182526020909120600a600b90920201015460ff16151560010361080657604051635e057c1560e11b815260040160405180910390fd5b61080f81610d0c565b1561082d57604051635e057c1560e11b815260040160405180910390fd5b6000818152601160209081526040808320805460ff19169055600f9091528120805490919061085e5761085e6122e0565b600091825260209091200154600680546001600160a01b03909216918390811061088a5761088a6122e0565b60009182526020909120600b90910201600a018054610100600160a81b0319166101006001600160a01b039384160217905560045460068054919092169163d8fc651991849081106108de576108de6122e0565b90600052602060002090600b020160040160009054906101000a90046001600160a01b031660068481548110610916576109166122e0565b600091825260209091206009600b9092020101546040516001600160e01b031960e085901b1681526001600160a01b0390921660048301526024820152604401600060405180830381600087803b15801561097057600080fd5b505af1158015610984573d6000803e3d6000fd5b505050506006818154811061099b5761099b6122e0565b90600052602060002090600b0201600a0160019054906101000a90046001600160a01b03166001600160a01b03167fe7c5d3d4c7d484605ecf1bf9482cd112aeec1eb37c49caaf64072ba18c5d842f826040516109fa91815260200190565b60405180910390a260008060068381548110610a1857610a186122e0565b60009182526020808320600b928302015486845291905260408083205490516001600160a01b039092169290919081818185875af1925050503d8060008114610a7d576040519150601f19603f3d011682016040523d82523d6000602084013e610a82565b606091505b50915091508115610ab1578060405163052b6f3b60e11b8152600401610aa891906122f6565b60405180910390fd5b505050565b60006107816001600160a01b038316636cdb3d1360e11b611bbf565b60066040518061018001604052808a6001600160a01b031681526020018b81526020016005548152602001838152602001856001600160a01b03168152602001878152602001610b2b8a42611be290919063ffffffff16565b8152602001610b3a428a611be2565b81526020808201889052604082018690526000606083018190526080909201829052835460018082018655948352918190208351600b9093020180546001600160a01b0319166001600160a01b039093169290921782558201519192909190820190610ba69082612391565b5060408281015160028301556060830151600383015560808301516004830180546001600160a01b039283166001600160a01b031990911617905560a084015160058085019190915560c085015160068086019190915560e086015160078601556101008087015160088701556101208701516009870155610140870151600a90960180546101609098015190941602610100600160a81b0319951515959095166001600160a81b03199096169590951793909317905590546000908152601160205220805460ff19166001908117909155905414610c985760058054906000610c8f83612467565b91905055610c9c565b6005545b50826001600160a01b0316886001600160a01b03167f7fe9f540bffb5f0568b310940c2be136e9786c0c504d68fff7080a11c74dbccd8b8a8a8a8a8989604051610cec9796959493929190612480565b60405180910390a3610d018383600554611a78565b505050505050505050565b600060068281548110610d2157610d216122e0565b90600052602060002090600b020160070154421015610d71576107814260068481548110610d5157610d516122e0565b90600052602060002090600b020160070154611bee90919063ffffffff16565b506000919050565b919050565b60068181548110610d8e57600080fd5b60009182526020909120600b9091020180546001820180546001600160a01b03909216935090610dbd90612309565b80601f0160208091040260200160405190810160405280929190818152602001828054610de990612309565b8015610e365780601f10610e0b57610100808354040283529160200191610e36565b820191906000526020600020905b815481529060010190602001808311610e1957829003601f168201915b50505060028401546003850154600486015460058701546006880154600789015460088a015460098b0154600a909b0154999a96999598506001600160a01b03948516975092959194909360ff8216916101009004168c565b80610e9981610d0c565b600003610ed35760405163022c3f7f60e01b8152741d1a19481c9859999b19481a185cc818db1bdcd959605a1b6004820152602401610aa8565b6000828152600960205260409020805460ff191660011790556006805483908110610f0057610f006122e0565b600091825260208083206008600b909302019190910154848352600d8252604080842033855290925291205403610f735760405163052b6f3b60e11b81526020600482015260166024820152751b585e1a5b5d5b481d1a58dad95d081c995858da195960521b6044820152606401610aa8565b60008281526011602052604090205460ff161515600114610fa75760405163052b6f3b60e11b8152600401610aa8906124c4565b60068281548110610fba57610fba6122e0565b60009182526020909120600a600b90920201015460ff161515600103610ff35760405163052b6f3b60e11b8152600401610aa8906124c4565b3460068381548110611007576110076122e0565b90600052602060002090600b0201600301541461105b5760405163052b6f3b60e11b8152602060048201526011602482015270496e737566666963656e742046756e647360781b6044820152606401610aa8565b6000828152600a602090815260408083203384528252808320805460ff19166001908117909155600e909252822080549192909161109a9084906124fb565b90915550506000828152600d6020908152604080832033845290915281208054600192906110c99084906124fb565b90915550506000828152600c6020908152604080832033845290915281208054916110f383612467565b90915550506000828152600b60205260409020546111119034611be2565b6000838152600b6020908152604080832093909355600f8152828220805460018181018355918452919092200180546001600160a01b0319163390811790915591517f40bc7a5a42a63076c1703716aa846847f49b2f7f7157858f12cf28a4bf89170e9161118a91869190918252602082015260400190565b60405180910390a2600080306001600160a01b0316600685815481106111b2576111b26122e0565b90600052602060002090600b02016003015460405160006040518083038185875af1925050503d8060008114611204576040519150601f19603f3d011682016040523d82523d6000602084013e611209565b606091505b5091509150811561122f578060405163052b6f3b60e11b8152600401610aa891906122f6565b50505050565b61123d611bfa565b6112476000611c54565b565b8061125381610d0c565b60000361128d5760405163022c3f7f60e01b8152741d1a19481c9859999b19481a185cc818db1bdcd959605a1b6004820152602401610aa8565b6000828152600c6020908152604080832033845290915290205415806112ca57506000828152600d60209081526040808320338452909152902054155b156113185760405163052b6f3b60e11b815260206004820152601c60248201527f796f752068617665206e6f20617661696c61626c65207469636b6574000000006044820152606401610aa8565b60008281526011602052604090205460ff16151560010361134c5760405163052b6f3b60e11b8152600401610aa8906124c4565b6000828152600d60209081526040808320338452909152812080546001929061137690849061250e565b90915550506000828152600c6020908152604080832033845290915281208054600192906113a590849061250e565b90915550506000828152600c6020908152604080832033845290915281205490036113ec576000828152600a602090815260408083203384529091529020805460ff191690555b61142860068381548110611402576114026122e0565b60009182526020808320600b928302016003015486845291905260409091205490611bee565b6000838152600b602052604081209190915561144a903390600a9085906115de565b6040805183815233602082015260018183015290517f8831e4a4e3dd76b62b91217f22f48a0df3059af0674f70cc4b0181da11304aa59181900360600190a1600080336001600160a01b0316600685815481106111b2576111b26122e0565b3360009081526010602052604090205460ff1615156001146115005760405163052b6f3b60e11b815260206004820152600f60248201526e3737ba1030903b30b634b230ba37b960891b6044820152606401610aa8565b60068181548110611513576115136122e0565b90600052602060002090600b0201600a0160009054906101000a900460ff161560068281548110611546576115466122e0565b90600052602060002090600b0201600a0160006101000a81548160ff0219169083151502179055507fe2aa9947b8ba0833c572628aa15d14375f76a56bf9d90031f4a78559dc7740bb81600683815481106115a3576115a36122e0565b60009182526020909120600a600b9092020101546040516115d3929160ff16909182521515602082015260400190565b60405180910390a150565b828060000361161f5760405162461bcd60e51b815260206004820152600d60248201526c63616e2774206265207a65726f60981b6044820152606401610aa8565b611627611bfa565b81156116a75760008381526002602090815260408083206001600160a01b03891684529091528120805486929061165f9084906124fb565b90915550506040518481526001600160a01b038616907fd7f299762ce0d2159301f91030f0bc279ff49fa3ea61252582165a49142856449060200160405180910390a2611722565b846001600160a01b03167fa8139581db442e3f33068cc16cd4923a01ed3a52627d27422a9b7b8dc9cac465856040516116e291815260200190565b60405180910390a260008381526002602090815260408083206001600160a01b03891684529091528120805486929061171c90849061250e565b90915550505b5050505050565b6000828152600c60209081526040808320338452909152902054158061176657506000828152600d60209081526040808320338452909152902054155b156117b45760405163052b6f3b60e11b815260206004820152601c60248201527f796f752068617665206e6f20617661696c61626c65207469636b6574000000006044820152606401610aa8565b600682815481106117c7576117c76122e0565b600091825260208083206008600b909302019190910154848352600d825260408084206001600160a01b0386168552909252912054116118435760405163052b6f3b60e11b81526020600482015260166024820152751b585e1a5b5d5b481d1a58dad95d081c995858da195960521b6044820152606401610aa8565b60008281526011602052604090205460ff1615156001036118775760405163052b6f3b60e11b8152600401610aa8906124c4565b61188533600a8460006115de565b61189381600a8460016115de565b6000828152600a602090815260408083203384528252808320805460ff19166001908117909155858452600d83528184206001600160a01b038616855290925282208054919290916118e69084906124fb565b90915550506000828152600c602090815260408083206001600160a01b0385168452909152812080546001929061191e9084906124fb565b90915550506000828152600c60209081526040808320338452909152812080549161194883612521565b909155505060405182815233906001600160a01b038316907fb3cbf25a96bad92f4ba0940db15eff20c2b7af96dd898eee4a586135556da8e89060200160405180910390a35050565b611999611bfa565b6119a282611a5c565b15611a1557604051632142170760e11b81523060048201523360248201526044810182905282906001600160a01b038216906342842e0e906064015b600060405180830381600087803b1580156119f857600080fd5b505af1158015611a0c573d6000803e3d6000fd5b50505050505050565b611a1e82610ab6565b15611a5857604051637921219560e11b815282906001600160a01b0382169063f242432a906119de90309033908790600190600401612538565b5050565b60006107816001600160a01b0383166380ac58cd60e01b611bbf565b611a8633600a8360016115de565b611a8f83611a5c565b15611b0357604051632142170760e11b81523360048201523060248201526044810183905283906001600160a01b038216906342842e0e906064015b600060405180830381600087803b158015611ae557600080fd5b505af1158015611af9573d6000803e3d6000fd5b5050505050505050565b611b0c83610ab6565b15610ab157604051637921219560e11b815283906001600160a01b0382169063f242432a90611acb90339030908890600190600401612538565b611b4e611bfa565b6001600160a01b038116611bb35760405162461bcd60e51b815260206004820152602660248201527f4f776e61626c653a206e6577206f776e657220697320746865207a65726f206160448201526564647265737360d01b6064820152608401610aa8565b611bbc81611c54565b50565b6000611bca83611ca4565b8015611bdb5750611bdb8383611cd7565b9392505050565b6000611bdb82846124fb565b6000611bdb828461250e565b6000546001600160a01b031633146112475760405162461bcd60e51b815260206004820181905260248201527f4f776e61626c653a2063616c6c6572206973206e6f7420746865206f776e65726044820152606401610aa8565b600080546001600160a01b038381166001600160a01b0319831681178455604051919092169283917f8be0079c531659141344cd1fd0a4f28419497f9722a3daafe3b4186f6b6457e09190a35050565b6000611cb7826301ffc9a760e01b611cd7565b80156107815750611cd0826001600160e01b0319611cd7565b1592915050565b604080516001600160e01b03198316602480830191909152825180830390910181526044909101909152602080820180516001600160e01b03166301ffc9a760e01b178152825160009392849283928392918391908a617530fa92503d91506000519050828015611d49575060208210155b8015611d555750600081115b979650505050505050565b600060208284031215611d7257600080fd5b81356001600160e01b031981168114611bdb57600080fd5b600060208284031215611d9c57600080fd5b5035919050565b80356001600160a01b0381168114610d7957600080fd5b634e487b7160e01b600052604160045260246000fd5b600067ffffffffffffffff80841115611deb57611deb611dba565b604051601f8501601f19908116603f01168101908282118183101715611e1357611e13611dba565b81604052809350858152868686011115611e2c57600080fd5b858560208301376000602087830101525050509392505050565b60008060008060808587031215611e5c57600080fd5b611e6585611da3565b9350611e7360208601611da3565b925060408501359150606085013567ffffffffffffffff811115611e9657600080fd5b8501601f81018713611ea757600080fd5b611eb687823560208401611dd0565b91505092959194509250565b600060208284031215611ed457600080fd5b611bdb82611da3565b60008060008060008060008060006101208a8c031215611efc57600080fd5b893567ffffffffffffffff811115611f1357600080fd5b8a01601f81018c13611f2457600080fd5b611f338c823560208401611dd0565b995050611f4260208b01611da3565b975060408a0135965060608a0135955060808a0135945060a08a01359350611f6c60c08b01611da3565b925060e08a013591506101008a013590509295985092959850929598565b60008060408385031215611f9d57600080fd5b82359150611fad60208401611da3565b90509250929050565b6000815180845260005b81811015611fdc57602081850181015186830182015201611fc0565b506000602082860101526020601f19601f83011685010191505092915050565b600060018060a01b03808f168352610180602084015261202061018084018f611fb6565b604084019d909d52606083019b909b5250978916608089015260a088019690965260c087019490945260e086019290925261010085015261012084015215156101408301529091166101609091015292915050565b6000806040838503121561208857600080fd5b61209183611da3565b946020939093013593505050565b600080600080608085870312156120b557600080fd5b6120be85611da3565b93506020850135925060408501359150606085013580151581146120e157600080fd5b939692955090935050565b60008083601f8401126120fe57600080fd5b50813567ffffffffffffffff81111561211657600080fd5b6020830191508360208260051b850101111561213157600080fd5b9250929050565b60008083601f84011261214a57600080fd5b50813567ffffffffffffffff81111561216257600080fd5b60208301915083602082850101111561213157600080fd5b60008060008060008060008060a0898b03121561219657600080fd5b61219f89611da3565b97506121ad60208a01611da3565b9650604089013567ffffffffffffffff808211156121ca57600080fd5b6121d68c838d016120ec565b909850965060608b01359150808211156121ef57600080fd5b6121fb8c838d016120ec565b909650945060808b013591508082111561221457600080fd5b506122218b828c01612138565b999c989b5096995094979396929594505050565b60008060006060848603121561224a57600080fd5b61225384611da3565b95602085013595506040909401359392505050565b60008060008060008060a0878903121561228157600080fd5b61228a87611da3565b955061229860208801611da3565b94506040870135935060608701359250608087013567ffffffffffffffff8111156122c257600080fd5b6122ce89828a01612138565b979a9699509497509295939492505050565b634e487b7160e01b600052603260045260246000fd5b602081526000611bdb6020830184611fb6565b600181811c9082168061231d57607f821691505b60208210810361233d57634e487b7160e01b600052602260045260246000fd5b50919050565b601f821115610ab157600081815260208120601f850160051c8101602086101561236a5750805b601f850160051c820191505b8181101561238957828155600101612376565b505050505050565b815167ffffffffffffffff8111156123ab576123ab611dba565b6123bf816123b98454612309565b84612343565b602080601f8311600181146123f457600084156123dc5750858301515b600019600386901b1c1916600185901b178555612389565b600085815260208120601f198616915b8281101561242357888601518255948401946001909101908401612404565b50858210156124415787850151600019600388901b60f8161c191681555b5050505050600190811b01905550565b634e487b7160e01b600052601160045260246000fd5b60006001820161247957612479612451565b5060010190565b60e08152600061249360e083018a611fb6565b60208301989098525060408101959095526060850193909352608084019190915260a083015260c090910152919050565b6020808252601a908201527f726166666c65206973206e6f206c6f6e67657220616374697665000000000000604082015260600190565b8082018082111561078157610781612451565b8181038181111561078157610781612451565b60008161253057612530612451565b506000190190565b6001600160a01b0394851681529290931660208301526040820152606081019190915260a06080820181905260009082015260c0019056fea2646970667358221220e2634cb7aa3455f096df66513c3ec880950eeb76a07c1fc5e8e3ef547bd0948c64736f6c63430008110033608060405261000d33610012565b610062565b600080546001600160a01b038381166001600160a01b0319831681178455604051919092169283917f8be0079c531659141344cd1fd0a4f28419497f9722a3daafe3b4186f6b6457e09190a35050565b610cce806100716000396000f3fe608060405234801561001057600080fd5b50600436106101165760003560e01c8063a4027838116100a2578063e0966dad11610071578063e0966dad14610284578063e09a3cb414610292578063f23a6e61146102a5578063f2fde38b146102c5578063fc9c8d39146102d857600080fd5b8063a40278381461022e578063bc197c811461023c578063d8fc65191461025e578063daa09e541461027157600080fd5b8063715018a6116100e9578063715018a61461019b578063789bc2e6146101a55780638ae5d314146101e85780638da5cb5b146101fb5780639b8cfe521461022057600080fd5b806301ffc9a71461011b578063150b7a0214610143578063282e460a1461017a5780634952e10b1461018d575b600080fd5b61012e610129366004610866565b6102eb565b60405190151581526020015b60405180910390f35b6101616101513660046108c2565b630a85bd0160e11b949350505050565b6040516001600160e01b0319909116815260200161013a565b61012e61018836600461099e565b610322565b6101616379476c2f60e11b81565b6101a361033e565b005b6101da6101b33660046109b9565b60009081526002602090815260408083206001600160a01b03949094168352929052205490565b60405190815260200161013a565b6101a36101f63660046109e3565b610352565b6000546001600160a01b03165b6040516001600160a01b03909116815260200161013a565b610161636cdb3d1360e11b81565b6101616301ffc9a760e01b81565b61016161024a366004610abe565b63bc197c8160e01b98975050505050505050565b6101a361026c3660046109b9565b6104a2565b61012e61027f36600461099e565b61056d565b6101616380ac58cd60e01b81565b6101a36102a0366004610b79565b610589565b6101616102b3366004610bac565b63f23a6e6160e01b9695505050505050565b6101a36102d336600461099e565b610664565b600154610208906001600160a01b031681565b60006001600160e01b031982166379476c2f60e11b148061031c57506001600160e01b031982166301ffc9a760e01b145b92915050565b600061031c6001600160a01b038316636cdb3d1360e11b6106dd565b610346610700565b610350600061075a565b565b82806000036103985760405162461bcd60e51b815260206004820152600d60248201526c63616e2774206265207a65726f60981b60448201526064015b60405180910390fd5b6103a0610700565b81156104205760008381526002602090815260408083206001600160a01b0389168452909152812080548692906103d8908490610c3a565b90915550506040518481526001600160a01b038616907fd7f299762ce0d2159301f91030f0bc279ff49fa3ea61252582165a49142856449060200160405180910390a261049b565b846001600160a01b03167fa8139581db442e3f33068cc16cd4923a01ed3a52627d27422a9b7b8dc9cac4658560405161045b91815260200190565b60405180910390a260008381526002602090815260408083206001600160a01b038916845290915281208054869290610495908490610c4d565b90915550505b5050505050565b6104aa610700565b6104b38261056d565b1561052657604051632142170760e11b81523060048201523360248201526044810182905282906001600160a01b038216906342842e0e906064015b600060405180830381600087803b15801561050957600080fd5b505af115801561051d573d6000803e3d6000fd5b50505050505050565b61052f82610322565b1561056957604051637921219560e11b815282906001600160a01b0382169063f242432a906104ef90309033908790600190600401610c60565b5050565b600061031c6001600160a01b0383166380ac58cd60e01b6106dd565b610591610700565b61059f33600a836001610352565b6105a88361056d565b1561061c57604051632142170760e11b81523360048201523060248201526044810183905283906001600160a01b038216906342842e0e906064015b600060405180830381600087803b1580156105fe57600080fd5b505af1158015610612573d6000803e3d6000fd5b5050505050505050565b61062583610322565b1561065f57604051637921219560e11b815283906001600160a01b0382169063f242432a906105e490339030908890600190600401610c60565b505050565b61066c610700565b6001600160a01b0381166106d15760405162461bcd60e51b815260206004820152602660248201527f4f776e61626c653a206e6577206f776e657220697320746865207a65726f206160448201526564647265737360d01b606482015260840161038f565b6106da8161075a565b50565b60006106e8836107aa565b80156106f957506106f983836107dd565b9392505050565b6000546001600160a01b031633146103505760405162461bcd60e51b815260206004820181905260248201527f4f776e61626c653a2063616c6c6572206973206e6f7420746865206f776e6572604482015260640161038f565b600080546001600160a01b038381166001600160a01b0319831681178455604051919092169283917f8be0079c531659141344cd1fd0a4f28419497f9722a3daafe3b4186f6b6457e09190a35050565b60006107bd826301ffc9a760e01b6107dd565b801561031c57506107d6826001600160e01b03196107dd565b1592915050565b604080516001600160e01b03198316602480830191909152825180830390910181526044909101909152602080820180516001600160e01b03166301ffc9a760e01b178152825160009392849283928392918391908a617530fa92503d9150600051905082801561084f575060208210155b801561085b5750600081115b979650505050505050565b60006020828403121561087857600080fd5b81356001600160e01b0319811681146106f957600080fd5b80356001600160a01b03811681146108a757600080fd5b919050565b634e487b7160e01b600052604160045260246000fd5b600080600080608085870312156108d857600080fd5b6108e185610890565b93506108ef60208601610890565b925060408501359150606085013567ffffffffffffffff8082111561091357600080fd5b818701915087601f83011261092757600080fd5b813581811115610939576109396108ac565b604051601f8201601f19908116603f01168101908382118183101715610961576109616108ac565b816040528281528a602084870101111561097a57600080fd5b82602086016020830137600060208483010152809550505050505092959194509250565b6000602082840312156109b057600080fd5b6106f982610890565b600080604083850312156109cc57600080fd5b6109d583610890565b946020939093013593505050565b600080600080608085870312156109f957600080fd5b610a0285610890565b9350602085013592506040850135915060608501358015158114610a2557600080fd5b939692955090935050565b60008083601f840112610a4257600080fd5b50813567ffffffffffffffff811115610a5a57600080fd5b6020830191508360208260051b8501011115610a7557600080fd5b9250929050565b60008083601f840112610a8e57600080fd5b50813567ffffffffffffffff811115610aa657600080fd5b602083019150836020828501011115610a7557600080fd5b60008060008060008060008060a0898b031215610ada57600080fd5b610ae389610890565b9750610af160208a01610890565b9650604089013567ffffffffffffffff80821115610b0e57600080fd5b610b1a8c838d01610a30565b909850965060608b0135915080821115610b3357600080fd5b610b3f8c838d01610a30565b909650945060808b0135915080821115610b5857600080fd5b50610b658b828c01610a7c565b999c989b5096995094979396929594505050565b600080600060608486031215610b8e57600080fd5b610b9784610890565b95602085013595506040909401359392505050565b60008060008060008060a08789031215610bc557600080fd5b610bce87610890565b9550610bdc60208801610890565b94506040870135935060608701359250608087013567ffffffffffffffff811115610c0657600080fd5b610c1289828a01610a7c565b979a9699509497509295939492505050565b634e487b7160e01b600052601160045260246000fd5b8082018082111561031c5761031c610c24565b8181038181111561031c5761031c610c24565b6001600160a01b0394851681529290931660208301526040820152606081019190915260a06080820181905260009082015260c0019056fea2646970667358221220be3852151d734f5c94ed67cc023ab9e8ce3de4a7100e3dda7f6ea60a87f8e60f64736f6c63430008110033",
    "sourcePath": "/home/malik/Desktop/raffle/src/RaffluxMain.sol",
    "compiler": {
        "name": "solc",
        "version": "0.8.17+commit.8df45f5f"
    },
    "functionHashes": {
        "IID_IERC1155()": "9b8cfe52",
        "IID_IERC165()": "a4027838",
        "IID_IERC721()": "e0966dad",
        "IID_ITEST()": "4952e10b",
        "buyTicket(uint256)": "67dd74ca",
        "caller()": "fc9c8d39",
        "canVote(uint256)": "25746251",
        "changeProposalStatus(uint256)": "76b57316",
        "currentValidators()": "a2cde609",
        "delegateTicket(uint256,address)": "a08292c2",
        "depositNft(address,uint256,uint256)": "e09a3cb4",
        "executeProposal(uint256)": "0d61b519",
        "getRandomness()": "aaae7b86",
        "hasTicket(uint256,address)": "4843d2b1",
        "isERC1155(address)": "282e460a",
        "isERC721(address)": "daa09e54",
        "onERC1155BatchReceived(address,address,uint256[],uint256[],bytes)": "bc197c81",
        "onERC1155Received(address,address,uint256,uint256,bytes)": "f23a6e61",
        "onERC721Received(address,address,uint256,bytes)": "150b7a02",
        "owner()": "8da5cb5b",
        "proposeRaffle(string,address,uint256,uint256,uint256,uint256,address,uint256,uint256)": "29d41695",
        "raffles(uint256)": "5d4bc0ce",
        "refundTicket(uint256)": "75774100",
        "renounceOwnership()": "715018a6",
        "supportsInterface(bytes4)": "01ffc9a7",
        "timeLeft(uint256)": "47cb7a68",
        "timeLefts(uint256)": "b219b6c6",
        "totalAmount(uint256)": "3ad42417",
        "totalTicket(address)": "5ec23ac9",
        "transferOwnership(address)": "f2fde38b",
        "type1155()": "6af58baf",
        "type721()": "2b483e06",
        "updatePoints(address,uint256,uint256,bool)": "8ae5d314",
        "viewPoints(address,uint256)": "789bc2e6",
        "withdrawNft(address,uint256)": "d8fc6519"
    },
    "gasEstimates": {
        "creation": {
            "codeDepositCost": "1927600",
            "executionCost": "infinite",
            "totalCost": "infinite"
        },
        "external": {
            "IID_IERC1155()": "270",
            "IID_IERC165()": "336",
            "IID_IERC721()": "269",
            "IID_ITEST()": "315",
            "buyTicket(uint256)": "infinite",
            "caller()": "2469",
            "canVote(uint256)": "24612",
            "changeProposalStatus(uint256)": "38945",
            "currentValidators()": "2384",
            "delegateTicket(uint256,address)": "infinite",
            "depositNft(address,uint256,uint256)": "infinite",
            "executeProposal(uint256)": "infinite",
            "getRandomness()": "256",
            "hasTicket(uint256,address)": "2686",
            "isERC1155(address)": "infinite",
            "isERC721(address)": "infinite",
            "onERC1155BatchReceived(address,address,uint256[],uint256[],bytes)": "infinite",
            "onERC1155Received(address,address,uint256,uint256,bytes)": "infinite",
            "onERC721Received(address,address,uint256,bytes)": "infinite",
            "owner()": "2432",
            "proposeRaffle(string,address,uint256,uint256,uint256,uint256,address,uint256,uint256)": "infinite",
            "raffles(uint256)": "infinite",
            "refundTicket(uint256)": "infinite",
            "renounceOwnership()": "infinite",
            "supportsInterface(bytes4)": "473",
            "timeLeft(uint256)": "infinite",
            "timeLefts(uint256)": "2483",
            "totalAmount(uint256)": "2550",
            "totalTicket(address)": "2564",
            "transferOwnership(address)": "28443",
            "type1155()": "284",
            "type721()": "285",
            "updatePoints(address,uint256,uint256,bool)": "28641",
            "viewPoints(address,uint256)": "2701",
            "withdrawNft(address,uint256)": "infinite"
        }
    }
}