{
    "contractName": "RafluxStorage",
    "abi": [
        {
            "inputs": [],
            "stateMutability": "payable",
            "type": "constructor"
        },
        {
            "anonymous": false,
            "inputs": [
                {
                    "indexed": true,
                    "internalType": "address",
                    "name": "previousOwner",
                    "type": "address"
                },
                {
                    "indexed": true,
                    "internalType": "address",
                    "name": "newOwner",
                    "type": "address"
                }
            ],
            "name": "OwnershipTransferred",
            "type": "event"
        },
        {
            "anonymous": false,
            "inputs": [
                {
                    "indexed": true,
                    "internalType": "address",
                    "name": "_user",
                    "type": "address"
                },
                {
                    "indexed": false,
                    "internalType": "uint256",
                    "name": "_points",
                    "type": "uint256"
                }
            ],
            "name": "addPoint",
            "type": "event"
        },
        {
            "anonymous": false,
            "inputs": [
                {
                    "indexed": true,
                    "internalType": "address",
                    "name": "_user",
                    "type": "address"
                },
                {
                    "indexed": false,
                    "internalType": "uint256",
                    "name": "_points",
                    "type": "uint256"
                }
            ],
            "name": "removePoint",
            "type": "event"
        },
        {
            "inputs": [],
            "name": "IID_IERC1155",
            "outputs": [
                {
                    "internalType": "bytes4",
                    "name": "",
                    "type": "bytes4"
                }
            ],
            "stateMutability": "view",
            "type": "function"
        },
        {
            "inputs": [],
            "name": "IID_IERC165",
            "outputs": [
                {
                    "internalType": "bytes4",
                    "name": "",
                    "type": "bytes4"
                }
            ],
            "stateMutability": "view",
            "type": "function"
        },
        {
            "inputs": [],
            "name": "IID_IERC721",
            "outputs": [
                {
                    "internalType": "bytes4",
                    "name": "",
                    "type": "bytes4"
                }
            ],
            "stateMutability": "view",
            "type": "function"
        },
        {
            "inputs": [],
            "name": "IID_ITEST",
            "outputs": [
                {
                    "internalType": "bytes4",
                    "name": "",
                    "type": "bytes4"
                }
            ],
            "stateMutability": "view",
            "type": "function"
        },
        {
            "inputs": [],
            "name": "caller",
            "outputs": [
                {
                    "internalType": "address",
                    "name": "",
                    "type": "address"
                }
            ],
            "stateMutability": "view",
            "type": "function"
        },
        {
            "inputs": [
                {
                    "internalType": "address",
                    "name": "_tokenAddress",
                    "type": "address"
                },
                {
                    "internalType": "uint256",
                    "name": "_tokenId",
                    "type": "uint256"
                }
            ],
            "name": "depositNft",
            "outputs": [],
            "stateMutability": "nonpayable",
            "type": "function"
        },
        {
            "inputs": [
                {
                    "internalType": "address",
                    "name": "nftAddress",
                    "type": "address"
                }
            ],
            "name": "isERC1155",
            "outputs": [
                {
                    "internalType": "bool",
                    "name": "",
                    "type": "bool"
                }
            ],
            "stateMutability": "view",
            "type": "function"
        },
        {
            "inputs": [
                {
                    "internalType": "address",
                    "name": "nftAddress",
                    "type": "address"
                }
            ],
            "name": "isERC721",
            "outputs": [
                {
                    "internalType": "bool",
                    "name": "",
                    "type": "bool"
                }
            ],
            "stateMutability": "view",
            "type": "function"
        },
        {
            "inputs": [
                {
                    "internalType": "address",
                    "name": "",
                    "type": "address"
                },
                {
                    "internalType": "address",
                    "name": "",
                    "type": "address"
                },
                {
                    "internalType": "uint256[]",
                    "name": "",
                    "type": "uint256[]"
                },
                {
                    "internalType": "uint256[]",
                    "name": "",
                    "type": "uint256[]"
                },
                {
                    "internalType": "bytes",
                    "name": "",
                    "type": "bytes"
                }
            ],
            "name": "onERC1155BatchReceived",
            "outputs": [
                {
                    "internalType": "bytes4",
                    "name": "",
                    "type": "bytes4"
                }
            ],
            "stateMutability": "nonpayable",
            "type": "function"
        },
        {
            "inputs": [
                {
                    "internalType": "address",
                    "name": "",
                    "type": "address"
                },
                {
                    "internalType": "address",
                    "name": "",
                    "type": "address"
                },
                {
                    "internalType": "uint256",
                    "name": "",
                    "type": "uint256"
                },
                {
                    "internalType": "uint256",
                    "name": "",
                    "type": "uint256"
                },
                {
                    "internalType": "bytes",
                    "name": "",
                    "type": "bytes"
                }
            ],
            "name": "onERC1155Received",
            "outputs": [
                {
                    "internalType": "bytes4",
                    "name": "",
                    "type": "bytes4"
                }
            ],
            "stateMutability": "nonpayable",
            "type": "function"
        },
        {
            "inputs": [
                {
                    "internalType": "address",
                    "name": "",
                    "type": "address"
                },
                {
                    "internalType": "address",
                    "name": "",
                    "type": "address"
                },
                {
                    "internalType": "uint256",
                    "name": "",
                    "type": "uint256"
                },
                {
                    "internalType": "bytes",
                    "name": "",
                    "type": "bytes"
                }
            ],
            "name": "onERC721Received",
            "outputs": [
                {
                    "internalType": "bytes4",
                    "name": "",
                    "type": "bytes4"
                }
            ],
            "stateMutability": "nonpayable",
            "type": "function"
        },
        {
            "inputs": [],
            "name": "owner",
            "outputs": [
                {
                    "internalType": "address",
                    "name": "",
                    "type": "address"
                }
            ],
            "stateMutability": "view",
            "type": "function"
        },
        {
            "inputs": [],
            "name": "renounceOwnership",
            "outputs": [],
            "stateMutability": "nonpayable",
            "type": "function"
        },
        {
            "inputs": [
                {
                    "internalType": "bytes4",
                    "name": "interfaceId",
                    "type": "bytes4"
                }
            ],
            "name": "supportsInterface",
            "outputs": [
                {
                    "internalType": "bool",
                    "name": "",
                    "type": "bool"
                }
            ],
            "stateMutability": "view",
            "type": "function"
        },
        {
            "inputs": [
                {
                    "internalType": "address",
                    "name": "newOwner",
                    "type": "address"
                }
            ],
            "name": "transferOwnership",
            "outputs": [],
            "stateMutability": "nonpayable",
            "type": "function"
        },
        {
            "inputs": [
                {
                    "internalType": "address",
                    "name": "_user",
                    "type": "address"
                },
                {
                    "internalType": "uint256",
                    "name": "_points",
                    "type": "uint256"
                },
                {
                    "internalType": "bool",
                    "name": "_bool",
                    "type": "bool"
                }
            ],
            "name": "updatePoints",
            "outputs": [],
            "stateMutability": "nonpayable",
            "type": "function"
        },
        {
            "inputs": [
                {
                    "internalType": "address",
                    "name": "_user",
                    "type": "address"
                }
            ],
            "name": "viewPoints",
            "outputs": [
                {
                    "internalType": "uint256",
                    "name": "",
                    "type": "uint256"
                }
            ],
            "stateMutability": "view",
            "type": "function"
        },
        {
            "inputs": [
                {
                    "internalType": "address",
                    "name": "_tokenAddress",
                    "type": "address"
                },
                {
                    "internalType": "uint256",
                    "name": "_tokenId",
                    "type": "uint256"
                }
            ],
            "name": "withdrawNft",
            "outputs": [],
            "stateMutability": "nonpayable",
            "type": "function"
        }
    ],
    "bytecode": "608060405261000d33610012565b610062565b600080546001600160a01b038381166001600160a01b0319831681178455604051919092169283917f8be0079c531659141344cd1fd0a4f28419497f9722a3daafe3b4186f6b6457e09190a35050565b610c31806100716000396000f3fe608060405234801561001057600080fd5b50600436106101165760003560e01c8063bc197c81116100a2578063e0966dad11610071578063e0966dad14610254578063ec0f36be14610262578063f23a6e6114610299578063f2fde38b146102b9578063fc9c8d39146102cc57600080fd5b8063bc197c81146101f9578063c2bb5e131461021b578063d8fc65191461022e578063daa09e541461024157600080fd5b8063715018a6116100e9578063715018a61461019b5780638da5cb5b146101a55780639b8cfe52146101ca578063a4027838146101d8578063a72e2cd6146101e657600080fd5b806301ffc9a71461011b578063150b7a0214610143578063282e460a1461017a5780634952e10b1461018d575b600080fd5b61012e610129366004610804565b6102df565b60405190151581526020015b60405180910390f35b610161610151366004610860565b630a85bd0160e11b949350505050565b6040516001600160e01b0319909116815260200161013a565b61012e61018836600461093c565b610316565b6101616379476c2f60e11b81565b6101a3610332565b005b6000546001600160a01b03165b6040516001600160a01b03909116815260200161013a565b610161636cdb3d1360e11b81565b6101616301ffc9a760e01b81565b6101a36101f4366004610957565b610346565b610161610207366004610a0f565b63bc197c8160e01b98975050505050505050565b6101a3610229366004610aca565b610411565b6101a361023c366004610957565b610552565b61012e61024f36600461093c565b6105e6565b6101616380ac58cd60e01b81565b61028b61027036600461093c565b6001600160a01b031660009081526002602052604090205490565b60405190815260200161013a565b6101616102a7366004610b0f565b63f23a6e6160e01b9695505050505050565b6101a36102c736600461093c565b610602565b6001546101b2906001600160a01b031681565b60006001600160e01b031982166379476c2f60e11b148061031057506001600160e01b031982166301ffc9a760e01b145b92915050565b60006103106001600160a01b038316636cdb3d1360e11b61067b565b61033a61069e565b61034460006106f8565b565b61034e61069e565b610357826105e6565b156103ca57604051632142170760e11b81523360048201523060248201526044810182905282906001600160a01b038216906342842e0e906064015b600060405180830381600087803b1580156103ad57600080fd5b505af11580156103c1573d6000803e3d6000fd5b50505050505050565b6103d382610316565b1561040d57604051637921219560e11b815282906001600160a01b0382169063f242432a9061039390339030908790600190600401610b87565b5050565b81806000036104575760405162461bcd60e51b815260206004820152600d60248201526c63616e2774206265207a65726f60981b60448201526064015b60405180910390fd5b61045f61069e565b81156104d5576001600160a01b0384166000908152600260205260408120805485929061048d908490610bd5565b90915550506040518381526001600160a01b038516907fd7f299762ce0d2159301f91030f0bc279ff49fa3ea61252582165a49142856449060200160405180910390a261054c565b6001600160a01b0384166000818152600260205260409020547fa8139581db442e3f33068cc16cd4923a01ed3a52627d27422a9b7b8dc9cac4659060405190815260200160405180910390a26001600160a01b03841660009081526002602052604081208054916105468380610be8565b90915550505b50505050565b61055a61069e565b610563826105e6565b156105a357604051632142170760e11b81523060048201523360248201526044810182905282906001600160a01b038216906342842e0e90606401610393565b6105ac82610316565b1561040d57604051637921219560e11b815282906001600160a01b0382169063f242432a9061039390309033908790600190600401610b87565b60006103106001600160a01b0383166380ac58cd60e01b61067b565b61060a61069e565b6001600160a01b03811661066f5760405162461bcd60e51b815260206004820152602660248201527f4f776e61626c653a206e6577206f776e657220697320746865207a65726f206160448201526564647265737360d01b606482015260840161044e565b610678816106f8565b50565b600061068683610748565b80156106975750610697838361077b565b9392505050565b6000546001600160a01b031633146103445760405162461bcd60e51b815260206004820181905260248201527f4f776e61626c653a2063616c6c6572206973206e6f7420746865206f776e6572604482015260640161044e565b600080546001600160a01b038381166001600160a01b0319831681178455604051919092169283917f8be0079c531659141344cd1fd0a4f28419497f9722a3daafe3b4186f6b6457e09190a35050565b600061075b826301ffc9a760e01b61077b565b80156103105750610774826001600160e01b031961077b565b1592915050565b604080516001600160e01b03198316602480830191909152825180830390910181526044909101909152602080820180516001600160e01b03166301ffc9a760e01b178152825160009392849283928392918391908a617530fa92503d915060005190508280156107ed575060208210155b80156107f95750600081115b979650505050505050565b60006020828403121561081657600080fd5b81356001600160e01b03198116811461069757600080fd5b80356001600160a01b038116811461084557600080fd5b919050565b634e487b7160e01b600052604160045260246000fd5b6000806000806080858703121561087657600080fd5b61087f8561082e565b935061088d6020860161082e565b925060408501359150606085013567ffffffffffffffff808211156108b157600080fd5b818701915087601f8301126108c557600080fd5b8135818111156108d7576108d761084a565b604051601f8201601f19908116603f011681019083821181831017156108ff576108ff61084a565b816040528281528a602084870101111561091857600080fd5b82602086016020830137600060208483010152809550505050505092959194509250565b60006020828403121561094e57600080fd5b6106978261082e565b6000806040838503121561096a57600080fd5b6109738361082e565b946020939093013593505050565b60008083601f84011261099357600080fd5b50813567ffffffffffffffff8111156109ab57600080fd5b6020830191508360208260051b85010111156109c657600080fd5b9250929050565b60008083601f8401126109df57600080fd5b50813567ffffffffffffffff8111156109f757600080fd5b6020830191508360208285010111156109c657600080fd5b60008060008060008060008060a0898b031215610a2b57600080fd5b610a348961082e565b9750610a4260208a0161082e565b9650604089013567ffffffffffffffff80821115610a5f57600080fd5b610a6b8c838d01610981565b909850965060608b0135915080821115610a8457600080fd5b610a908c838d01610981565b909650945060808b0135915080821115610aa957600080fd5b50610ab68b828c016109cd565b999c989b5096995094979396929594505050565b600080600060608486031215610adf57600080fd5b610ae88461082e565b92506020840135915060408401358015158114610b0457600080fd5b809150509250925092565b60008060008060008060a08789031215610b2857600080fd5b610b318761082e565b9550610b3f6020880161082e565b94506040870135935060608701359250608087013567ffffffffffffffff811115610b6957600080fd5b610b7589828a016109cd565b979a9699509497509295939492505050565b6001600160a01b0394851681529290931660208301526040820152606081019190915260a06080820181905260009082015260c00190565b634e487b7160e01b600052601160045260246000fd5b8082018082111561031057610310610bbf565b8181038181111561031057610310610bbf56fea26469706673582212200a64cd42338eecc63035f407c13fb11005723b392ff29bb08b5faf9c50452c7964736f6c63430008110033",
    "sourcePath": "/home/malik/Desktop/raffle/src/RafluxStorage.sol",
    "compiler": {
        "name": "solc",
        "version": "0.8.17+commit.8df45f5f"
    },
    "functionHashes": {
        "IID_IERC1155()": "9b8cfe52",
        "IID_IERC165()": "a4027838",
        "IID_IERC721()": "e0966dad",
        "IID_ITEST()": "4952e10b",
        "caller()": "fc9c8d39",
        "depositNft(address,uint256)": "a72e2cd6",
        "isERC1155(address)": "282e460a",
        "isERC721(address)": "daa09e54",
        "onERC1155BatchReceived(address,address,uint256[],uint256[],bytes)": "bc197c81",
        "onERC1155Received(address,address,uint256,uint256,bytes)": "f23a6e61",
        "onERC721Received(address,address,uint256,bytes)": "150b7a02",
        "owner()": "8da5cb5b",
        "renounceOwnership()": "715018a6",
        "supportsInterface(bytes4)": "01ffc9a7",
        "transferOwnership(address)": "f2fde38b",
        "updatePoints(address,uint256,bool)": "c2bb5e13",
        "viewPoints(address)": "ec0f36be",
        "withdrawNft(address,uint256)": "d8fc6519"
    },
    "gasEstimates": {
        "creation": {
            "codeDepositCost": "624200",
            "executionCost": "26474",
            "totalCost": "650674"
        },
        "external": {
            "IID_IERC1155()": "292",
            "IID_IERC165()": "314",
            "IID_IERC721()": "247",
            "IID_ITEST()": "315",
            "caller()": "2447",
            "depositNft(address,uint256)": "infinite",
            "isERC1155(address)": "infinite",
            "isERC721(address)": "infinite",
            "onERC1155BatchReceived(address,address,uint256[],uint256[],bytes)": "infinite",
            "onERC1155Received(address,address,uint256,uint256,bytes)": "infinite",
            "onERC721Received(address,address,uint256,bytes)": "infinite",
            "owner()": "2365",
            "renounceOwnership()": "infinite",
            "supportsInterface(bytes4)": "450",
            "transferOwnership(address)": "28421",
            "updatePoints(address,uint256,bool)": "13549",
            "viewPoints(address)": "2581",
            "withdrawNft(address,uint256)": "infinite"
        }
    }
}